:020000040800F2
:10000000902B0020ED0D0008F10D0008F30D000805
:10001000F50D0008F70D0008F90D000800000000BC
:10002000000000000000000000000000FB0D0008C0
:10003000FD0D000800000000FF0D0008171000086B
:100040002B1000082D1000082F1000083110000898
:10005000331000083510000837100008AF100008F2
:10006000B1100008B3100008B5100008B710000860
:10007000B9100008BB100008BD100008BF10000830
:10008000C1100008C3100008C5100008030E0008C6
:10009000C9100008030E0008030E0008D510000860
:1000A000D7100008D9100008DB100008DD10000888
:1000B000DF100008E1100008E3100008E510000858
:1000C000E7100008E9100008EB100008ED10000828
:1000D000EF100008F1100008F3100008F5100008F8
:1000E000F7100008F9100008FB10000800F002F8F3
:1000F00000F06AF80AA090E8000C82448344AAF158
:100100000107DA4501D100F05FF8AFF2090EBAE855
:100110000F0013F0010F18BFFB1A43F0010318473B
:10012000DCCC0000FCCC00000A444FF0000C10F8BE
:10013000013B13F0070408BF10F8014B1D1108BF65
:1001400010F8015B641E05D010F8016B641E01F805
:10015000016BF9D113F0080F1EBF10F8014BAD1C55
:100160000C1B09D16D1E58BF01F801CBFAD505E073
:1001700014F8016B01F8016B6D1EF9D59142D6D3CD
:10018000704700000023002400250026103A28BFF5
:1001900078C1FBD8520728BF30C148BF0B607047F9
:1001A00066290BF0C087642904F042840020704760
:1001B0001FB505F0C9F80400002000210AF030FD49
:1001C000E0601FBD10B510BD05F0C2F91146FFF784
:1001D000EFFF01F04DF905F0E0F903B4FFF7F2FF8E
:1001E00003BC05F023FA000031490143314A116094
:1001F000704770B5002100230F22C47804B32D4C42
:10020000246804F4E064C4F5E064210AC1F1040345
:10021000CA40447804FA03F1847814402143090168
:10022000254C0678A155047804F01F050124AC4044
:1002300005786D11AD0005F1E025C5F8004109E034
:10024000047804F01F050124AC401C4D067876119B
:1002500045F8264070BD1A4A0A400243154B1B1F41
:100260001A60704739B1134A121D12680243114BCC
:100270001B1D1A6006E00F4A121D126882430D4BC7
:100280001B1D1A607047042808D14FF0E02109694E
:1002900041F004014FF0E022116107E04FF0E0214E
:1002A000096921F004014FF0E0221161704700005C
:1002B0000000FA050CED00E000E400E080E100E061
:1002C00080FFFF1F002044490860091D0860091DC8
:1002D0000860091D086041483F49143108607047B3
:1002E00000213D498279002A3AD00A461268036803
:1002F0009A430B461A600A1D126803689A430B1D45
:100300001A60027911440A6803681A430A60324A83
:100310000832126803689A432F4B08331A601A1D7B
:10032000126803689A432C4B0C331A604279102AE6
:100330000ED11A1F126803681A43274B08331A603C
:100340001A1D126803681A43234B0C331A600DE020
:100350002149427911440A6803681A430A6005E09A
:10036000027911440A6803689A430A6070470021C1
:10037000016001710C2141710021817170471649A2
:10038000103109680143144A103211607047014668
:100390000020114A143212680A400AB1012000E01C
:1003A000002070470C491431086070470146002056
:1003B0000022094B1B6803EA0102074B14331B6838
:1003C0000B4013B10AB1012000E000207047024940
:1003D000143108607047000000040140FFFF0F0067
:1003E00010B50446CC48844208D10121042000F015
:1003F0002DFB0021042000F029FB46E0C748844281
:1004000008D10121082000F021FB0021082000F084
:100410001DFB3AE0C248844208D10121102000F0BF
:1004200015FB0021102000F011FB2EE0BD48844296
:1004300008D10121202000F009FB0021202000F03C
:1004400005FB22E0B848844208D10121402000F099
:10045000FDFA0021402000F0F9FA16E0B34884428A
:1004600008D10121802000F0F1FA0021802000F065
:10047000EDFA0AE0AE48844207D10121801500F070
:10048000E5FA0021A01500F0E1FA10BD10B5012138
:10049000084600F0DBFA0021012000F0D7FA10BD79
:1004A0002DE9F0410246002500260020002300240B
:1004B000002791F803C00CF00F0591F803C00CF071
:1004C000100CBCF1000F03D091F802C04CEA0505F6
:1004D00091F800C0BCF1000F31D0146800202BE06F
:1004E0004FF0010C0CFA00F3B1F800C00CEA03065F
:1004F0009E4220D183004FF00F0C0CFA03F7BC434F
:1005000005FA03FC4CEA040491F803C0BCF1280F7F
:1005100006D14FF0010C0CFA00FCC2F814C00AE03E
:1005200091F803C0BCF1480F05D14FF0010C0CFA53
:1005300000FCC2F810C0401C0828D1D31460B1F8E8
:1005400000C0BCF1FF0F34DD546800202EE000F144
:10055000080C4FF0010808FA0CF3B1F800C00CEADF
:1005600003069E4221D183004FF00F0C0CFA03F7D3
:10057000BC4305FA03FC4CEA040491F803C0BCF147
:10058000280F05D100F1080C08FA0CF8C2F8148005
:1005900091F803C0BCF1480F07D100F1080C4FF0EF
:1005A000010808FA0CF8C2F81080401C0828CED3C5
:1005B0005460BDE8F0814FF6FF7101800221817027
:1005C0000421C17070470246002093680B400BB1B4
:1005D000012000E0002070470146886880B2704723
:1005E00002460020D3680B400BB1012000E0002040
:1005F00070470146C86880B2704701617047416129
:1006000070470AB1016100E041617047C160704705
:100610004FF480320A43826181618261826982691A
:10062000704702460020434B18684FF6807318400D
:1006300040EA021008433F4B186070473E49C861CA
:100640007047F0B50A46002300240021002500F081
:100650000046B6F1004F02D1364EF16901E0354E49
:100660007168C0F3034583B200F44016B6F5401F2D
:1006700008D121F070612F4E766826F070662D4FFC
:100680007E6012E000F48016B6F5801F06D10326C6
:1006900006FA05F4A14341F0706106E0460D36010B
:1006A00003FA06F6B14341F0706122B1460D3601FE
:1006B00003FA06F6314300F00046B6F1004F02D1CE
:1006C0001C4EF16101E01B4E7160F0BD30B500229F
:1006D0008B071C0F0F2303FA04F2164B08338C1000
:1006E00053F824309343134C08348D1044F82530CC
:1006F00023468C1053F824308C07240F00FA04F49E
:1007000023430C4C08348D1044F8253030BD0A4981
:10071000DC3108607047000000080140000C014017
:10072000001001400014014000180140001C01406D
:10073000002001400000014000002042DF48006826
:1007400040F00100DD49086008464068DC49084087
:10075000DA49486008460068DA490840D749086025
:100760000846006820F4802008600846406820F4AD
:10077000FE0048604FF41F0088607047CF49096849
:1007800021F48031CD4A11601146096821F480219D
:100790001160B0F5803F03D0B0F5802F0ED106E098
:1007A000C649096841F48031C44A116007E0C34971
:1007B000096841F4A021C14A116000E000BF00BFF8
:1007C000704710B501460022002300204A11012A7B
:1007D00002D1BA4C236806E0022A02D1B74C236A40
:1007E00001E0B64C636A01F01F02012494401C40F2
:1007F0000CB1012000E0002010BD38B500200090B1
:100800000024002500BF3120FFF7DBFF05460098DC
:10081000401C00900098B0F5A06F01D0002DF2D0E0
:100820003120FFF7CEFF08B1012400E0002420466C
:1008300038BD01460020A14A106820F0F80040EAC7
:10084000C10010607047A049086070470246002050
:100850009A4B586820F47C1042EA01031843974BE6
:100860005860704798490866704701460020934ACF
:10087000506820F003000843506070478F4840687C
:1008800000F00C007047014600208C4A506820F0B0
:10089000F00008435060704701460020874A5068C6
:1008A00020F4E06008435060704701460020834A0E
:1008B000506820F4605040EAC1005060704729B190
:1008C0007E4A527A02437D4B5A7204E07B4A527A46
:1008D00082437A4B5A7270477B49D831086070471F
:1008E00001460020754A506820F44040084350609B
:1008F00070470021714A20321170704A82F820102E
:10090000012802D004280AD104E001216B4A2032D8
:10091000117005E00521694A2032117000E000BF26
:1009200000BF70476949086070476449096A01431C
:10093000624A11627047654944390860704730B5B2
:1009400000210022002400235C4D6D6805F00C019D
:1009500021B1042905D0082923D105E05C4D0560AB
:1009600022E05B4D05601FE0544D6D6805F4701288
:10097000524D6D6805F48034022505EB92421CB996
:10098000544D554305600BE04C4D6D6805F4003542
:100990001DB1504D5543056002E04D4D5543056076
:1009A00002E04B4D056000BF00BF444D6D6805F08F
:1009B000F0010909484D6B5C0568DD4045603F4D1D
:1009C0006D6805F4E061090A434D6B5C4568DD40E4
:1009D00085603A4D6D6805F46051C90A3E4D6B5C07
:1009E0004568DD40C560354D6D6805F44041890BB3
:1009F0003A4D6B5CC568B5FBF3F5056130BD29B1B7
:100A00002E4A526902432D4B5A6104E02B4A526927
:100A100082432A4B5A61704729B1284A926902439E
:100A2000264B9A6104E0254A92698243234B9A61DE
:100A3000704729B1214AD2690243204BDA6104E0B0
:100A40001E4AD26982431D4BDA61704729B11B4AA5
:100A5000D2680243194BDA6004E0184AD268824334
:100A6000164BDA60704729B1144A12690243134BDE
:100A70001A6104E0114A12698243104B1A617047EF
:100A800012494039086070470F49C86470470B49E4
:100A9000C87170470948406A40F080700749486251
:100AA000704701460020054A92680A400AB10120B9
:100AB00000E0002070470149887270470010024032
:100AC0000000FFF8FFFFF6FE0000424280044242B1
:100AD00000127A0000093D000000002010000020F4
:100AE00010B50446BE48844208D101218014FFF7A6
:100AF000ADFF0021A014FFF7A9FF16E0B94884421A
:100B000008D101210014FFF7AEFF00212014FFF7E8
:100B1000AAFF0AE0B448844207D10121C013FFF7BD
:100B2000A2FF0021E013FFF79EFF10BD10B50022C9
:100B3000028802F441520B884C8823438C8823435B
:100B4000CC8823430C8923434C8923438C8923433A
:100B5000CC8923431A430280838B4FF2FF742340D6
:100B600083830B8A038210BD2DE9F04F85B00546C3
:100B70000C464FF0000902274FF000084FF0010B20
:100B80000026B246A88B4FF240010840A8830220FD
:100B90002884B5F81C90A068022801D100BF38E075
:100BA000A08810B94FF0010B01E04FF0020B8D4807
:100BB000854200D100E000BF6846FFF7C0FEDDF8C7
:100BC00000A0E088B0F5007F0AD14FEA1A2000EBC0
:100BD00080004000A168B0FBF1F0401D86B20BE040
:100BE0004FEA4B10BAFBF0F000EB80004000A16828
:100BF000B0FBF1F0401D86B20A20B6FBF0F606F01D
:100C00000108A6EB0800C0F34F074FF6FF7000EA9B
:100C10000828022F01DBFF2F02DD02274FF000081A
:100C2000E08840EA080038432884A088A189084366
:100C3000618808432188084340F4006040EA0909BC
:100C4000A5F81C9005B0BDE8F08F0021018041801F
:100C50008180C180018141818181C181072101821F
:100C600070470021018041808180C1800221816024
:100C700000218181704721B1028842F04002028048
:100C800004E002884FF6BF731A400280704721B11A
:100C9000828B42F48062828304E0828B4FF6FF33C2
:100CA0001A408283704730B5002400230C110125BF
:100CB000A540ABB21AB185881D43858002E08588C6
:100CC0009D43858030BD1AB183880B43838002E049
:100CD00083888B4383807047818170470146888970
:100CE00070474FF6FF62914204D0028842F480724E
:100CF000028004E002884FF6FF631A4002807047CA
:100D000021B1828842F00402828004E082884FF69A
:100D1000FB731A408280704702884FF2FF731A40BB
:100D2000028002880A4302807047018841F48051A2
:100D30000180704721B1028842F40052028004E031
:100D400002884DF6FF731A40028070470246002069
:100D5000012901D0108B00E0908A70470146088A73
:100D60007047B1F5804F04D1028842F4804202807E
:100D700004E002884BF6FF731A4002807047024677
:100D8000002013890B400BB1012000E000207047C8
:100D9000CA4302817047F0B50246002000240023B8
:100DA000002501F00F070126BE40B4B20B11012649
:100DB0009E40B3B2968806EA03051689264016B10E
:100DC0000DB1012000E00020F0BD10B5002201F0BF
:100DD0000F040123A3409AB2D343038110BD000046
:100DE0000030014000380040003C00400848004707
:100DF000FEE7FEE7FEE7FEE7FEE7FEE7FEE7FEE7CB
:100E0000FEE7FEE703480449024A044B704700002E
:100E1000ED00000890170020902B00209017002074
:100E20000CB50020019000906C48006840F48030C0
:100E30006A49086000BF6948006800F4003000900B
:100E40000198401C0190009818B90198B0F5A06F66
:100E5000F1D16248006800F4003010B10120009028
:100E600001E0002000900098012843D15C48006810
:100E700040F010005A4908600846006820F003005E
:100E800008600846006840F0020008605348406867
:100E9000524948600846406848600846406840F447
:100EA000806048600846406820F47C10486008462E
:100EB000406840F4E81048600846006840F08070E0
:100EC000086000BF4548006800F000700028F9D0B5
:100ED0004248406820F003004049486008464068A6
:100EE00040F00200486000BF3C48406800F00C0041
:100EF0000828F9D10CBD10B5FFF792FF10BD10B551
:100F00003648006840F001003449086008464068EF
:100F10003449084031494860084600683249084071
:100F20002E4908600846006820F4802008600846C2
:100F3000406820F4FE0048604FF41F008860FFF70F
:100F4000DAFF4FF000602949086010BD10B500219C
:100F500000200022214B5B6803F00C0121B1042921
:100F600006D0082928D107E0214B224C236027E036
:100F70001F4B204C236023E0184B5B6803F4701078
:100F8000164B5B6803F48032022303EB904022B9D6
:100F9000194B4343174C23600DE0104B5B6803F47F
:100FA000003323B1144B4343124C236003E0104B36
:100FB0004343104C236003E00D4B0E4C236000BFF5
:100FC00000BF064B5B68C3F303130C4CE15C094B99
:100FD0001B68CB40074C236010BD0000001002408E
:100FE000002002400000FFF8FFFFF6FE08ED00E0E1
:100FF00000127A001400002000093D0018000020B3
:101000007047704700BFFEE700BFFEE700BFFEE786
:101010007047704770474248D0E900305A1C40F191
:1010200000003F49C1E90020704770477047704792
:1010300070477047704710B50120FFF7B7F90028D7
:1010400030D03748D0E90020364918C9D11A60EBB2
:101050000400C83970F1000003D20120FFF7B7F98E
:1010600010BD2F48D0E900202F49D1E90031D31A13
:1010700060EB01004EF660220021D21A814108D2B5
:1010800000F0DAFA2648D0E90010274AC2E9001039
:1010900002E026A003F042FA2148D0E90010214ADC
:1010A000C2E900100120FFF792F900BFD8E77047AE
:1010B0007047704770477047704770477047704778
:1010C000704770477047704710B503F079FA10BD4C
:1010D0007047704770477047704770477047704758
:1010E0007047704770477047704770477047704748
:1010F0007047704770477047704770477047704738
:101100007047704770477047704770477047704727
:1011100070477047704770477047704770470000CE
:10112000480000203800002028000020506C656135
:101130007365205761697420616E64207472792030
:10114000616761696E2E2E2E0D0A000000B587B012
:10115000012141F21400FFF75FFCA020ADF8180058
:1011600018208DF81B0003208DF81A0006A9F448FA
:10117000FFF796F94020ADF8180048208DF81B00C5
:1011800006A9EF48FFF78CF91020ADF818008DF88C
:101190001B0003208DF81A0006A9E948FFF780F923
:1011A0001021E748FFF729FA4FF48270ADF80600E6
:1011B0002820ADF810000020ADF804000720ADF89D
:1011C00014000220ADF80A000120ADF80C00002048
:1011D000ADF81200ADF808004FF40070ADF80E0045
:1011E00001A9D848FFF7A2FC0121D648FFF743FD2B
:1011F0004FF40050ADF8180010208DF81B000320AC
:101200008DF81A0006A9D048FFF74AF907B000BDCB
:1012100070B504460025CB48848100BF0221C9482F
:10122000FFF7ADFD0028F9D000BF0121C548FFF749
:10123000A6FD0028F9D0C348FFF750FDC5B22846E7
:1012400070BD2DE9F04180460D4616461F4600242C
:101250001020BB491431086005F07F00FFF7D8FF6C
:1012600000BF03E0305DFFF7D3FF641CBC42F9DB35
:101270001020B349103108600020BDE8F0812DE94D
:10128000F04180460D4616461F4600241020AC490A
:101290001431086045F08000FFF7BAFF00BF04E09A
:1012A0000020FFF7B5FF3055641CBC42F8DB10206E
:1012B000A349103108600020BDE8F08130B5A34B90
:1012C000D3E90053291843F1000200BF9F4C18CC0A
:1012D000CB1A72EB0403F9D230BDF0B500BF9B48C6
:1012E0004FF47A75002612C8A1FB052704FB05748C
:1012F00001FB064310461946F0BD2DE9D04FA2B0C0
:1013000006460F4692469B4600BF0020209020983C
:1013100030B94FF400508C4948610120209005E01D
:101320004FF400508849086100202090884A00232B
:101330003046394603F044FB044633980AF0BCF9C2
:101340008046894632980AF0B7F9CDE91E013198F6
:101350000AF0B2F9CDE91C012F980AF0ADF9CDE9F8
:101360001A012C980AF0A8F9CDE918012B980AF077
:10137000A3F9CDE916012A980AF09EF9CDE91401E6
:1013800050460AF099F9CDE91089CDE91201DDE95D
:101390001E01CDE90E01DDE91C01CDE90C01DDE9FD
:1013A0001A01CDE90A01DDE91801CDE90801DDE9FD
:1013B0001601CDE90601DDE91401CDF808B0CDE94B
:1013C0000401DDE912012246CDE9000161496248CC
:1013D00003F01AFB604803F0A1F822B0BDE8D08FFB
:1013E000024600207047704770B504460D464FF422
:1013F000E3725A49204603F0FDFB4FF4E37070BDE1
:101400001FB501210920FFF707FB0120ADF80C00F3
:1014100048208DF80F0003208DF80E0003A95048D6
:10142000FFF73EF800210120FFF750F9012000905E
:1014300000208DF804000C208DF8050001208DF8A7
:1014400006006846FEF74CFF06208DF808000020D5
:101450008DF8090003208DF80A0001208DF80B009B
:1014600002A8FEF7C6FE1FBD10B5FFF748FD10BD70
:101470001FB5FFF7F9FF01210846FFF7CDFA01215B
:101480003848FFF7DEF802F03FFFFFF7B9FF4FF4EF
:101490007A7000F07CF8FFF759FE102028491431CB
:1014A00008607320FFF7B4FE0120FFF7B1FE1020A3
:1014B000234910310860012000F069F8102020490C
:1014C000143108606020FFF7A3FEB620FFF7A0FEEE
:1014D00010201B4910310860012000F058F800214D
:1014E0001A4A1160516000F077F807211EA002F03F
:1014F000F5FFAFF20B10AFF21711AFF23F22AFF2D0
:101500008123CDE900210290AFF2C92200211848C1
:1015100000F0DCF803909DF90C4014B1204604B0B3
:1015200010BD42F21070AFF24113AFF23122AFF2B0
:1015300055210090AFF27B2000F009FB0020EEE780
:101540000008014000300140001001404800002028
:1015500040420F0098CD0008740100203DC30008F0
:10156000000C01400002300052656164790D0A00F0
:101570007E735A3B0146002004E0002000E0401C3E
:101580000728FCD30A1EA1F10101F6D170470146DC
:10159000002006E0002000E0401C42F6E26290429B
:1015A000FAD30A1EA1F10101F4D1704745F2555258
:1015B000084B1A601A46506091604AF6AA221A60D7
:1015C0004CF6CC421A6070474AF6AA2001490860DE
:1015D000704700000030004030B51449B1F1807F01
:1015E00001D301201DE021F07F40401E4FF0E0229A
:1015F000506150170F22002807DA13071D0E0C4BFD
:1016000000F00F04241F1D5503E013071C0E094BA7
:101610001C5400BF00204FF0E022906107201061B1
:10162000002008B100BFFEE730BD000040190100F6
:1016300018ED00E000E400E030B593B0012408208C
:101640000090002501208DF84800002011906B4685
:1016500001AA214611A808F013FB05462A46F3A16A
:10166000F84803F0D1F9F74802F058FF13B030BD45
:1016700070B5A2B00446082508200190002601207C
:101680008DF84C0012940E2112A8017314940721B6
:10169000017516940F210177189409218DF86C10AB
:1016A0001A9406218DF874101C9408218DF87C1072
:1016B0001E9402218DF88410209401AB02AA2946C1
:1016C00008F0DEFA0646304622B070BD2DE9F04F34
:1016D000ADF2645D81460E4617469846DDF88CB53E
:1016E000DDF888A50020CDF86005CDF85C054FF445
:1016F000E471E5A803F0F5FA4FF4E47173A803F080
:10170000F0FA4FF4E47101A803F0EBFA7620CE4929
:101710004870002088700846C764C0F84880C0F848
:1017200050A000F0A4FC8DF860059DF8600530B174
:10173000BDF8601508460DF2645DBDE8F08F08F055
:1017400071F98DF861059DF8610518B1BDF8601556
:101750000846F0E74FF4E37173A8DDF89025904751
:1017600005467DB14FF4E37301AA294673A808F03A
:1017700055FA8DF861059DF8610518B1BDF8601541
:101780000846D8E74FF4E371E5A8D84704467CB192
:101790004FF4E37301AA2146E5A808F04BFA8DF84F
:1017A00061059DF8610518B1BDF860150846C2E7EE
:1017B000A64806604846FFF75BFF8DF861059DF877
:1017C000610518B1BDF860150846B4E7BDF86015AD
:1017D0000846B0E7F8B504460D460027207D38B32B
:1017E000E07C994981F83800617C974880F83A108C
:1017F000A17C80F83910217C80F83E10A189A0F8E6
:101800004010E189A0F8421001208F4981F844007E
:10181000CF26304600F03DFD07468B4800F063FCC4
:1018200007468949684600F010FFBDF80000A84748
:10183000854800F0CCFE074605E00520A847824811
:1018400000F0C5FE0746804890F844000128F4D017
:10185000F8BD2DE9F04706460F4615461C46DDF853
:1018600020804FF00009B8F1000F7DD0764978480C
:1018700001F00BF981467648007800F080000028DE
:101880007DD008F0010098B10120217805EB01110D
:1018900048736F4988680AF067F9217805EB0111F0
:1018A0008860207805EB0010C0C02078401C2070B4
:1018B00008F0040050B30320217805EB01114873B0
:1018C0006349B1F904000AF007F98246614909F059
:1018D000DBFF217805EB01118860207805EB001013
:1018E000C0C02078401C20700E20217805EB01112B
:1018F000487356480068217805EB0111886020780C
:1019000005EB0010C0C02078401C207008F00200D9
:10191000B8B10220217805EB011148734C49C86821
:101920000AF022F982464C4909F0AEFF217805EB16
:1019300001118860207805EB0010C0C02078401CA1
:10194000207008F0080078B14148007800F02000CD
:1019500050B10420217805EB011148733C49086916
:101960000AF002F9217800E009E005EB0111886036
:10197000207805EB0010C0C02078401C2070BDE826
:10198000F0872DE9F74FD4B00F46904600201B900A
:101990000024814600210D460E461A901990824679
:1019A00083461890179016901590149013901290EB
:1019B000119010900F900E900D900C900B90002FA6
:1019C00074DD0E201B901BAB1CAA3946549807F0FF
:1019D0007FFF814600BF9CE01CA800EB0410407B09
:1019E000162870D2DFE800F08C0B163A458C695649
:1019F00070638C8C8C8C505C8C8C768C8C811CA84D
:101A000000EB041080681A901CA800EB0410807B87
:101A1000199076E01CA800EB0410806814901CA8B4
:101A200000EB0410807B13906BE00000494E545F84
:101A3000425345435F52657475726E3A25640D0AD0
:101A400000000000740100203C0200205000002033
:101A5000940200200000C84200007A441CA800EB59
:101A60000410806812901CA800EB0410807B119079
:101A700047E01CA800EB0410806810901CA800EB45
:101A80000410807B0F903CE01CA800EB0410D0F801
:101A900008A036E01CA800EB04108068189030E025
:101AA0001CA800EB0410806817902AE04CE01CA8EA
:101AB00000EB04108068159023E01CA800EB0410D4
:101AC000D0F808B01DE01BE01CA800EB04108068F3
:101AD000169016E01CA800EB041080680E901CA85D
:101AE00000EB0410807B0D900BE01CA800EB0410B1
:101AF00080680C901CA800EB0410807B0B9000E029
:101B000005E000BF1CA800EB041060C800BF601C0B
:101B1000C4B29DF86C008442FFF65EAF149A12992D
:101B20001098CDE90692CDE90810189ADDE9150163
:101B3000CDE9022BCDE904101798CDE900A0284685
:101B40003146DDE91932C04757B0BDE8F08F2DE9C5
:101B5000FF4FF3B0064689469A4600BF00BF0020FB
:101B6000519005908346049093E0C8474FF47A73F0
:101B700000228446ACFB037E01FB03E100FB02185C
:101B80003846414609F0CEFA0022424BCDE9000129
:101B900009F042F9CDE9020109F058F83E49086020
:101BA0004AAA3846414608F02BF83C4908704A9A40
:101BB00010464B9909F0B6FA0022364BCDE90001E8
:101BC00009F02AF9CDE9020109F040F8344908602A
:101BD00032480078642810D10EE032A002F09EFC5A
:101BE000C820B0474FF4005032494861C820B04780
:101BF0004FF400502F490861EFE731464AA8FFF73C
:101C0000E9FD002051904C9851AB52AA0090384603
:101C10004146FFF71EFE9DF8441152A8759AFFF742
:101C2000B0FE0BF1010BBBF10A0F11D305A8862101
:101C300006AB0A46CDE9001028A9002007F0B8FE3F
:101C40000490049810B928A80599D0474FF0000BCC
:101C5000C8474FF47A734FF0000CA0FB032E01FB32
:101C600003E100FB0C114A9B4B989A1A60EB0100B0
:101C7000CDE90220104A6346DDE9020102F0A0FE30
:101C80000D4604460022101B72EB050101DA2046C6
:101C9000B0476AE765CDCD41540000205C000020CC
:101CA0005800002054696D69696E67204572726F33
:101CB000720D0A000010014040420F00014629B198
:101CC0008A6C1AB1CA6C0AB10A6D12B94FF0FF30B2
:101CD00000E000207047F8B507460C462046FFF7A5
:101CE000EDFF06468EBB7F2F01DD002500E01025AD
:101CF000E078A84229D0E570607801236A46F32194
:101D0000D4F848C0E04784F8540094F8540008B16F
:101D10006FF00106CEB99DF8000020F01000009091
:101D2000E07800F010009DF8001008430090607803
:101D300001236A467321D4F84CC0E04784F854006C
:101D400094F8540008B16FF001063046F8BD2DE953
:101D5000F04105460F4690461C462046FFF7AEFF71
:101D60000646BEB9A07838B921462846FFF7B3FF2A
:101D700006460EB945F08005607843463A46294646
:101D8000D4F848C0E04784F8540094F8540008B1EF
:101D90006FF001063046BDE8F08130B58DB00446E5
:101DA0002C2102A802F09DFF002001902046FFF7A1
:101DB00085FF0546002D7CD12346192202A98920E2
:101DC000FFF7C5FF05463DB9234610220DF121015D
:101DD000E120FFF7BCFF05469DF829009DF82A1079
:101DE00040EA0121E1829DF809009DF80A1040EACD
:101DF000012001B221839DF80B0041B2A1769DF82C
:101E00000D009DF80E1040EA0121A1839DF80F00FE
:101E10009DF8101040EA012001B2E1839DF8110005
:101E200041B2202001559DF813009DF8141040EA9E
:101E3000012001B261849DF815009DF8161040EA5A
:101E4000012001B2A1849DF8180041B2262001555D
:101E50009DF8170041B2272001559DF81B009DF801
:101E60001C1040EA012001B221859DF81D009DF85B
:101E70001E1040EA012001B261859DF81F1084F810
:101E80002C109DF823109DF8220061F31F10208173
:101E90009DF8210000019DF8221040EA2111618186
:101EA0009DF8240041B221739DF8250041B2617371
:101EB00000E048E09DF8260041B2A1739DF827108C
:101EC000E1739DF8280041B221749DF82D0041B2C4
:101ED00061749DF82B009DF82C1040EA012001B29E
:101EE00061829DF82E0041B221750DBB234601226F
:101EF00001A90220FFF72BFF05469DF80400C0F35F
:101F0000011184F834109DB92346012201A9002053
:101F1000FFF71DFF05469DF8040041B284F8351017
:101F200035B92346012201A90420FFF710FF054619
:101F30009DF8041049B221F00F00C11700EB117198
:101F4000091184F8361028460DB030BDF8B50446A6
:101F50002046FFF7B3FE054695B9607801236A462F
:101F6000F321A66CB04784F8540094F8540010B1E3
:101F70006FF0010504E09DF8000000F01000E07033
:101F80002846F8BD2DE9F0438BB007468946164632
:101F90001D46282101A802F0A4FE2846FFF78EFE68
:101FA0008046B8F1000F39D1002E35DD142E33D222
:101FB000002419E0A87858B9385D2946FFF78BFE50
:101FC0008046385D00F07F0001AA02F8140003E0AB
:101FD000385D01AA02F8140019F804106000401CD2
:101FE00001AA1154601C84B2B442E3DBB8F1000FC3
:101FF00014D17200521E93B29DF8041068780DF14E
:102000000502D5F84CC0E04785F8540095F8540017
:1020100020B16FF0010801E06FF0030840460BB0FB
:10202000BDE8F0837CB50446E0200190B620009026
:102030002046FFF743FE0546BDB9A07818B92046F3
:10204000FFF784FF054685B923460122694601A8AA
:10205000FFF798FF05460A20216D88472DB9A07823
:1020600018B92046FFF772FF054628467CBD70B5BB
:1020700004462046FFF722FE0546B5B92046FFF785
:10208000D1FF05468DB9234601222146D020FFF716
:102090005EFE05464DB92078612804D12046FFF741
:1020A0007CFE054601E06FF00205284670BD30B5A4
:1020B00004460020A4B125788D4206DA217093F8F9
:1020C000465045F0010583F846502578954209DDD4
:1020D000227093F8465045F0020583F8465001E01F
:1020E0004FF0FF3030BD7CB50446002674200090D0
:1020F0002046FFF7E3FD054685BB00BF23460122CE
:1021000001A97420FFF723FE05469DB99DF8040040
:1021100000F0030676B19DF8040020F00300019062
:102120002346012201A96846FFF72CFF05460A2035
:10213000216D8847002EE1D194F8440070B194F8E5
:1021400044109DF8040061F30100019035B9234665
:10215000012201A96846FFF715FF054628467CBD08
:1021600010B501460022B1F57C6F01DBFF200DE0C8
:1021700007E00B46CC1701EB9474C4F38F01531C9A
:10218000DAB23F29F5DC01EB8213D8B210BD2DE99C
:10219000F0430246B2F5C87F01DD4FF4C87291F9F1
:1021A000048091F9149008FB09F84FF47A7998FBB0
:1021B000F9F84FEA0824B1F91280DFF83898C844DA
:1021C00008FB02F808EB88084FF0640998FBF9F85F
:1021D00008F548184FF00A0998FBF9F891F91190A1
:1021E00009F5447908FB09F303EBD37904EB69059E
:1021F00091F8348008F1040895FBF8F691F93580E0
:1022000008EB480909EBC81808F5803796FBF7F882
:10221000A8F1FA0808EB08184FEA480C0CF132084C
:102220004FF0640998FBF9F808F0FF00BDE8F0836F
:102230007CB504462046FFF741FD05463DBB002026
:102240000190009094F84400012816D15A208DF88E
:1022500004004021085B2146FFF799FF8DF800003C
:1022600064208DF805004221085BFFF779FF8DF8A7
:102270000100002084F83C0000E0012535B9234628
:102280000222694601A8FFF77DFE054600BF2846E9
:102290007CBD2DE9F04385B006460C460020049035
:1022A0000025029003900090019094F844902046FD
:1022B000FFF704FD0746002F7ED106F0080018B195
:1022C0002046FFF7B5FF0746002084F844001FB9F9
:1022D0002046FFF708FF074606F0100020B323460C
:1022E0000722002104F13B00FFF7E1FE07464FF013
:1022F000750837B92346012204A94046FFF727FD98
:10230000074606F0100030B13B20015D9DF810003B
:1023100061F38400049002A800F805809DF8100085
:102320000DF80500681CC5B206F0200020B3234656
:102330000822002104F13D00FFF7B9FE07464FF0E7
:10234000700837B92346012204A94046FFF7FFFC75
:1023500007469DF8100020F008003D21095D01F0BE
:1023600008010843049002A800F805809DF81000B9
:102370000DF80500681CC5B206F0030080B32346C3
:102380000522002104F13900FFF791FE07464FF0C6
:10239000740837B92346012204A94046FFF7D7FC49
:1023A000074606F0010030B13920015D9DF81000AC
:1023B00061F34710049000E07CE006F0020030B1C9
:1023C0003A20015D9DF8100061F38400049002A89A
:1023D00000F805809DF810000DF80500681CC5B2D6
:1023E00006F0040008B323460522002104F138005A
:1023F000FFF75DFE07464FF0720837B9234601220A
:1024000004A94046FFF7A3FC074694F838109DF84E
:10241000100061F30200049002A800F805809DF806
:1024200010000DF80500681CC5B206F0C000B8B376
:1024300023460122002104F13E00FFF738FE074643
:102440003FB923460A22002104F13C00FFF72FFE8A
:1024500007464FF0710837B92346012204A94046C8
:10246000FFF775FC074606F0400030B13E20015DE5
:102470009DF8100061F30410049006F0800030B164
:1024800094F83C109DF8100061F30300049002A83A
:1024900000F805809DF810000DF80500681CC5B215
:1024A00037B923462A46694602A8FFF76BFD07465F
:1024B00084F84490384605B0BDE8F083F8B504468A
:1024C0005A266427002000902046FFF7F7FB0546B8
:1024D000FDB9A07820B921463046FFF7FCFB054640
:1024E000BDB92346012269463046FFF730FC054658
:1024F0007DB99DF800104020015323460122694612
:102500003846FFF724FC05461DB99DF8001042200F
:1025100001532846F8BD2DE9FC4105460C467027BD
:102520000020009001902046FFF7C8FB0646002ED1
:1025300048D12346062269463846FFF708FC06467E
:10254000002E41D105F0080018B12046FFF7B6FF74
:10255000064605F0100028B19DF80500C0F3820181
:102560003B20015505F0030050B19DF804004109DE
:10257000392001559DF80400C0F382013A2001552D
:1025800005F0040028B19DF8020000F0070084F86F
:10259000380005F0200028B19DF8000000F0080187
:1025A0003D20015505F0C00070B19DF8010000F01C
:1025B0000F0084F83C009DF80100C0F300113E209C
:1025C000015501E04FF0FF363046BDE8FC8138B5DB
:1025D00004462046FFF772FB054665B923460122F3
:1025E00069467420FFF7B3FB05469DF8000000F034
:1025F000030084F84400284638BD3CB50346FEA5D8
:1026000030CDCDE900453924645C1DF804203A241E
:10261000645C1DF80440224491F838401DF80440E1
:10262000224440F2AB7402FB04F000F2747000F636
:10263000511000F5FA704FF47A74B0FBF4F0401CBE
:102640001C1AA5B2422465523CBD3CB50246EAA51F
:1026500030CDCDE900453924645C1DF804303A24BE
:10266000645C1DF80440234491F838401DF8044090
:10267000234440F2AB7403FB04F000F2747000F6E4
:10268000511000F5FA704FF47A74B0FBF4F0401C6E
:1026900010803E24645C24B115884224645A2C4482
:1026A00014803CBD2DE9F04FA5B004468946924602
:1026B0004022D34911A802F0E2FA4022D049403129
:1026C00001A802F0DCFA05219AF9360081FB0030FE
:1026D00040F23C515A1840F1000011A951F829105C
:1026E0000023A2FB01CB00FB01B002FB03014FEA78
:1026F0001C4040EA01450E140020C00340EA54404B
:10270000E2034FF08073D11A60F100004F1940EBE3
:10271000060801A850F8290000222946A0FB013B29
:1027200002FB05B100FB0611580A40EAC1504912EC
:10273000CDE922015FEA68024FEA3703DDE92201B1
:1027400013EB000B51413A464346584602F038F924
:102750002190219825B0BDE8F08F2DE9F04F034678
:10276000D1F8309009EB890909F180094FEA292253
:1027700091F90C9009FB02F94FF0640A99FBFAFAFF
:10278000B1F80890A3EB0919A9EB6A0691F90D902D
:1027900009FB02F94FF0640A99FBFAFA91F90E90DD
:1027A00009FB02F94FF0640B99FBFBF909FB02F9F5
:1027B0004FEAA91999FBFBF9D14409F58049B1F811
:1027C0000AA009FB0AF94FEAA92706FB07F491F8CA
:1027D0000F904FEAC91591F9109009FB02F9DA46FA
:1027E00099FBFAF9A9444FEA29154FEAA43909FBE4
:1027F00009F94FEAA92C05FB0CF94FEA690804EB2B
:1028000008094FEAA9294FF47A7A09FB0AF94FEA35
:102810002930DFF8F091484501DD484602E0002804
:1028200000DA0020BDE8F08FF0B504464FF47A4797
:102830000E6BC7EB660296107643F61291F926707E
:102840007E43B310B1F92460564303EB46039F1057
:102850004E8C07EB064396107643761391F9207061
:102860007F017E43F710B1F91E60564307EB660205
:10287000921402F500468F8B7E43F213C4F580104C
:10288000A0EB233640F6354706FB07F0B0F1804F4A
:1028900003DB90FBF2F6700002E0460096FBF2F0DC
:1028A000C61076437613B1F92A707E433213861030
:1028B000B1F928707E4373130612764307127E43E4
:1028C00091F82C707E437514D618771991F927600A
:1028D00007EBC61600EB2610F0BD2DE9784F8446B5
:1028E0004FEAEC08C88AA8EB4000C3170246B1F9CA
:1028F00018004FEAE078A0FB029A08FB02A800FB50
:1029000003804FEA405848EAD9265FEA63084FEA55
:102910003200A0FB009A08FB00AA00FB08A84FEABF
:10292000193040EA08544FEA283591F91A004FEA65
:1029300000104FEAE078A146A0FB09BE08FB04E8BE
:1029400000FB05804FEA804848EA9B343019086351
:10295000086B00EB800000F180004FEA202000B2FD
:1029600000900098BDE8788F2DE9F04F85B00446BF
:102970000D46002001900290039004900A272846FB
:10298000FFF79CF9804600BFB8F1000F71D12B46CC
:102990000F2201A91D20FFF7DAF980469DF80400F7
:1029A00000F0800020709DF8040000F00F006070BF
:1029B0009DF80500A0709DF8060001039DF8070032
:1029C00041EA00109DF8081040EA111B9DF809002B
:1029D00001039DF80A0041EA00109DF80B1040EA3F
:1029E000111A9DF80D109DF80C0041EA00269DF883
:1029F000110009E0995902000001020408100000CA
:102A00000CC20008A086010080009DF8121040EA68
:102A1000911000909DF8120000F00F0920789DF8A9
:102A2000121001F020010843207020789DF8121048
:102A300001F0100108432070207800F08000A8B158
:102A400029465046FFF749FFA08029465846FFF720
:102A5000EBFEA06029463046FFF77FFEE0602A4685
:102A600049460098FFF71EFE206106E00A20296D06
:102A70008847781EC7B2002F86D100BF0FB94FF02C
:102A80000208404605B0BDE8F08F70B506460C461A
:102A90002046FFF713F9054685B921463046FFF772
:102AA00063FF054655B9307800F0800018B1012069
:102AB00084F8450002E0002084F84500284670BDF7
:102AC00010B504462CB90120F64909680882002097
:102AD00010BDF549096808688047F24800680A3067
:102AE000F6E710B5EF480068C078F04949788842A9
:102AF00013DCEC480068807878B9EA480068808880
:102B000058B9E8480068C078E64909688872E6491B
:102B1000096848688047002010BD0220FCE710B516
:102B200004462CB90120DF4909680882002010BD45
:102B3000DD49096888688047DA4800680C30F6E7A4
:102B400010B5D84B1B68D978D64B1B685879D84B31
:102B50001B689A6990470446D2480068807AE8B1B9
:102B60003CB9D0480068007918B9CE480068807830
:102B700008B1022010BD8CB9CB490968C8688047EC
:102B8000C84800684079C7490968C872C5480068E4
:102B9000C078C449096808730020EBE70220E9E720
:102BA00010B504462CB90220BE49096808820020ED
:102BB00010BD0020BF490880BA480068007800F0C6
:102BC0007F0018BBB7490968487A00F0200131B18D
:102BD000B849097841F00201B64A117005E0B549DB
:102BE000097801F0FD01B34A117000F0400131B1E4
:102BF000B049097841F00101AE4A117005E0AD49D4
:102C0000097801F0FE01AB4A11703AE0A54800686E
:102C1000007800F07F00012801D1A648C8E7A1484C
:102C20000068007800F07F00022828D19D4A1268D1
:102C3000517901F00F0001F080027AB19E4B03EB55
:102C40008002D2F8002C02F03002102A16D1994AE4
:102C5000127842F00102974B1A700FE0964B03EB8B
:102C60008002D2F8002C02F44052B2F5805F05D108
:102C7000904A127842F001028E4B1A7001E0002057
:102C800096E789490968086980478A4890E72DE9ED
:102C9000F04784480068007800F07F08B8F1000F22
:102CA0000AD180480068407A00F0DF007D49096859
:102CB00048720020BDE8F087B8F1020F7ED1794854
:102CC0000068408818B977480068007908B1022088
:102CD000F0E7DFF8D89173480068477927F080055E
:102CE0002C4670480068407900F0800038B1724985
:102CF00001EB8400D0F8000C00F0300606E06E49CD
:102D000001EB8400D0F8000C00F4405699F8000064
:102D1000A84204D91EB163480068807A08B902202D
:102D2000C8E707F0800080B1634901EB8400D0F868
:102D3000000C00F0300010284BD1E0B201F01DF87B
:102D4000E0B2302100F09FFE43E05B4901EB8400DC
:102D5000D0F8000C00F44050B0F5805F39D1E4B9F0
:102D6000564A92F82C10E0B201F091F8524A02EB68
:102D70008401D1F8001C4BF68F7201EA020080F446
:102D8000805080F4005040F4004141F080014A4BF3
:102D900003EB8402C2F8001C1BE0E0B200F0D5FF98
:102DA000454A02EB8401D1F8001C4BF68F7201EA10
:102DB000020080F4805080F4005000E00FE040F406
:102DC000004141F080013C4B03EB8402C2F8001C3F
:102DD00000BF354909684869804700206AE700BF9D
:102DE000022067E72DE9F0412E480068467926F079
:102DF00080073C462B480068407900F0800038B1DD
:102E00002D4901EB8400D0F8000C00F0300506E0FD
:102E1000294901EB8400D0F8000C00F44055234808
:102E20000078A04208D91F480068408820B91DB129
:102E30001C480068807A10B90220BDE8F08106F0D5
:102E40008000A0B11C4A02EB8401D1F8001C48F6B6
:102E5000BF7201EA020080F0100040F4004141F02E
:102E60008001154B03EB8402C2F8001C14E0124AE7
:102E700002EB8401D1F8001C4BF68F7201EA0200CC
:102E800080F4805040F4004141F080010A4B03EB94
:102E90008402C2F8001C00BF0349096888698047A2
:102EA0000020CAE76800002074000020E400002031
:102EB0006C0000205E00002000500040E800002070
:102EC00010B5F7480068407A40F02000F4490968DE
:102ED0004872F4490968C8698047002010BD10B5E0
:102EE0000246EF480068438A32B98888C01AEC4C21
:102EF00024682082002010BD08681844FBE72DE9F3
:102F0000F041E748006800F110042688A068C0B1CD
:102F1000BEB1A588B54200D93546A8B2A168884798
:102F200007462088401B208060882844608000205D
:102F300000F07FFF8046AAB24146384600F03EFDD1
:102F400000BF208850B14FF44050D749088000217D
:102F5000084600F07AFF3020D44908802088A188F4
:102F6000884204DB0320CE490968087218E02088F3
:102F7000002804DD0520CA490968087210E020888D
:102F800070B90620C649096808720021C84800685F
:102F900080B2801CC74A42F810103020C349088014
:102FA000BDE8F0812DE9F047BD48006800F110054B
:102FB0002E88BB480068077AD6B9042F18D1BE48BE
:102FC000007801280FD10021B948006880B2801C28
:102FD000B84A42F810103020B449088000BF0020E1
:102FE000B549087003E007271020B049088027E0A2
:102FF000AC88A64201D8042000E002200746B44273
:1030000000D93446A0B2A96888478046002000F065
:1030100005FF8146A2B24946404600F0B5FCA1B288
:10302000002000F012FF2888001B288068882044B8
:10303000688030209D49088000029B49088000BFBD
:10304000974909680F72BDE8F08770B50226944869
:103050000068447892480068007800F07F000028FB
:1030600044D1092C03D1FFF73CFD06465FE0052C57
:1030700014D18B480068C0787F280BDC8848006832
:10308000807838B986480068808818B98448006814
:10309000807A08B1082565E0002648E0032C0ED1AF
:1030A0007F480068C078012807D17D480068808883
:1030B00018B9FFF705FF064639E0022637E0012C74
:1030C00035D177480068C07801280DD17448006870
:1030D000808848B972480068407A00F0200018B132
:1030E000FFF7D5FD064622E0022620E06C48006886
:1030F000007800F07F00012805D10B2C17D1FFF7D5
:103100001FFD064613E066480068007800F07F0067
:1031100002280BD1012C03D1FFF7B9FD064606E0CA
:10312000032C04D1FFF75EFE064600E002264EB1F6
:10313000E0B2624A1268516988470646032E01D1FF
:1031400009250FE00EB108250CE00625002158489E
:10315000006880B2801C574A42F810103020534952
:10316000088000BF4E4909680D7270BD2DE9F84F07
:103170004B48006845780027BA46062D1BD14848C1
:103180000068007800F07F00002813D144490968E6
:103190008878012803D149490968CF690AE00228E3
:1031A00003D1464909680F6A04E0032802D1434964
:1031B00009684F6AADE0002D67D139480068408842
:1031C000002862D136480068C08802285DD13448A2
:1031D00000680079002858D131480068007800F074
:1031E0007F0030B92E480068808810B9AFF24F6771
:1031F0008FE02B480068007800F07F00012811D193
:103200002749096848792D4909688A69002190474A
:1032100000287ED122480068807A002879D0AFF259
:103220007F6776E01E480068007800F07F00022883
:103230006FD11B480068407900F00F0618480068FD
:10324000407900F0700916480068407900F080006D
:1032500038B11B4901EB8600D0F8000C00F03008B3
:1032600006E0174901EB8600D0F8000C00F4405846
:1032700014480078B0424CD9B9F1000F49D1B8F1E7
:10328000000F46D0AFF2E76743E0082D1CD1044899
:103290000068007800F07F00D8BBAFF2DB7738E041
:1032A0006800002074000020780000207A000020D0
:1032B000505C004000600040600000206C00002076
:1032C00000500040E40000200A2D22D1C5480068CB
:1032D000007800F07F0001281BD1C2480068807A86
:1032E000B8B1C0480068408898B9BE480068007905
:1032F00078B9BC480068C08801280AD1B949096872
:103300004879B94909688A690021904708B9AFF23C
:10331000F17757B1B3480068A0F812A0B14800682F
:1033200087610020B84700240FE0AE4A1268507849
:10333000AD4A1268116988470446032C05D109205B
:10334000A84909680872BDE8F88FA6480068008A95
:103350004FF6FF71884204D10920A249096808721A
:10336000F1E7022C03D09F480068008A20B90820AA
:103370009C4909680872E6E79A480068007800F0FE
:103380008000E0B397480068C088009095480068C6
:10339000008A0099884204D99249009809680882F5
:1033A00023E090480068008A8E490968C9888842ED
:1033B0001BDA8C480068008A8B49096891F82C1048
:1033C000884203DA0020894908700EE085480068C9
:1033D000008A8549096891F82C1090FBF1F201FBF5
:1033E000120010B90120814908707F48006890F8E8
:1033F0002C107C4800688182FFF7D4FD07E0FFE7CE
:10340000032078490968087200037949088000BFE1
:1034100099E710B5774890F82C10002000F037FDA0
:1034200070480068007A082805D140027049088079
:103430001020714908806B480068007A092801D182
:10344000012010BD0020FCE738B501246B4800685E
:1034500080B2001D6A4931F8100080B201EB4000D3
:10346000009060480068007A092832D000980078FF
:103470005C49096808700098401C0090009800782A
:103480005849096848700098401C0090009800EB6B
:1034900044000090009931F8020B009100F0A0FE6A
:1034A000504909684880009800EB4400009000995A
:1034B00031F8020B009100F093FE4A4909688880B8
:1034C000009800EB44000090009800884549096886
:1034D000C880012043490968087242480068C088D2
:1034E00010B9FFF7B2FD01E0FFF740FEFFF791FFD3
:1034F00038BD30B50146434B1A78002014E003066E
:10350000414C04EB9353D3F8003C48F68F742340AE
:1035100048F280042343C4B2234304063A4D05EB2A
:103520009454C4F8003C401C9042E8D341F080031E
:10353000324C241F236030BD10B52A480068047A3D
:10354000022C01D0042C05D1FFF72CFD2548006882
:10355000047A1CE0062C19D122480068407805281E
:103560000ED120480068007800F07F0040B91D4966
:103570000968C878FFF7BDFF24490968086A8047D1
:103580001949096888688047082400E0082415491B
:1035900009680C72FFF73DFF10BD10B511480068B7
:1035A000047A022C01D0042C01D1082412E0032C4F
:1035B00001D0052C05D1FFF7A2FC0A480068047A67
:1035C00008E0072C05D108490968C8688047082425
:1035D00000E00824034909680C72FFF71AFF10BDC8
:1035E00070470000680000206C0000206000002090
:1035F00078000020E80000207A000020505C0040A5
:1036000000600040E40000200050004074000020F2
:1036100010B5084808490860022009680872074880
:1036200007490860074808490860054909680868AB
:10363000804710BDA802002068000020E80000209C
:103640006C000020180100207400002008B5002044
:10365000009022E1C448008800F00F00C3490870C0
:103660000846007800287CD1C1480068C14908801C
:103670000846008800F03000BF490880BD48008837
:1036800000F44050BB490880B94909684BF6BF7245
:1036900001EA020080F4005080F0200040F4004174
:1036A00041F08001B24A1160AF48008800F010007C
:1036B00090BB1046006848F60F710840114608603C
:1036C000FFF73AFFAA4909684BF6BF7201EA020008
:1036D000A849098801F4805109B180F48050A549B6
:1036E000098801F4005109B180F40050A249098809
:1036F00001F0100109B180F010009F49098801F024
:10370000200109B180F0200081B241F4004141F074
:103710008001974A116008BDFFE79548006880B2B4
:103720000090BDF8000000F40060B0B3904800685D
:10373000C0F30E0048F68F7108408D490860FFF70E
:1037400083FE8B4909684BF6BF7201EA0200894982
:10375000098801F4805109B180F4805085490988B5
:1037600000E056E001F4005109B180F400508249B4
:10377000098801F0100109B180F010007E49098824
:1037800001F0200109B180F0200081B241F4004134
:1037900041F08001764A1160BDE7FFE7BDF8000007
:1037A00000F40040002878D071480068C0F30E0093
:1037B00048F68F7108406E490860FFF7EEFE6C49CD
:1037C00009684BF6BF7201EA02006A49098801F4F0
:1037D000805109B180F480506649098801F4005194
:1037E00009B180F400506449098801F0100109B161
:1037F00080F010006049098801F0200109B180F0D3
:10380000200081B241F4004141F08001584A11602A
:1038100081E756480078594901EB8000D0F8000C48
:1038200080B20090BDF8000000F40040C0B14F48E5
:10383000007801EB8000D0F8000CC0F30E0048F6D1
:103840008F710840494909784C4A02EB8101C1F85F
:10385000000C46490978491E494A52F82100804720
:10386000BDF8000000F08000B8B14048007843493E
:1038700001EB8000D0F8000C48F60F7108403B497E
:1038800009783E4A02EB8101C1F8000C37490978FA
:10389000491E3C4A52F821008047354844300068B0
:1038A00080B23149088000F4004000287FF4D2AE95
:1038B00000BF30E710B500244AE047F6FF702C49FE
:1038C000443108602848008800F00F00274908703C
:1038D00008460078294901EB8000D0F8000C84B23A
:1038E00004F40040C8B12148007801EB8000D0F812
:1038F000000CC0F30E0048F68F7108401B49097890
:103900001E4A02EB8101C1F8000C18490978491ED2
:103910001B4A52F8210080471AE004F08000B8B139
:1039200012480078154901EB8000D0F8000C48F6E9
:103930000F7108400D490978104A02EB8101C1F866
:10394000000C0A490978491E0E4A52F821008047A6
:1039500007484430006880B20349088000F4004002
:103960000028AAD110BD00009C00002064000020A7
:10397000005C0040780000207A00002000500040E9
:10398000BC000020A0000020F0B5144604F1010C9A
:103990004FEA6C07DFF848C00CEB41033D460AE0F4
:1039A0000678401C90F800C046EA0C2223F8022B4F
:1039B0009B1C401C6D1E002DF2D1F0BDF0B5561CB5
:1039C0007510074E06EB41042B4605E034F8047BE6
:1039D00020F8017B401C5B1E002BF7D1F0BD0000DE
:1039E00000600040FA4908607047F948006880B2FA
:1039F0007047F749091D08607047F548001D0068C9
:103A000080B27047F2480830006880B27047F049D1
:103A10000C3108607047EE480C30006880B2704787
:103A20004FF6F8710140EA4A103211607047E848D9
:103A30001030006880B27047E64B03EB8002C2F89A
:103A4000001C70470146E34A02EB8100D0F8000CED
:103A500080B2704710B5DF4B03EB8002D2F8002C28
:103A600048F68F131A400A43DA4C04EB8003C3F87C
:103A7000002C10BD0146D74A02EB8100D0F8000CA3
:103A800000F4C060704730B5D24C04EB8003D3F82B
:103A9000003C48F6BF7403EA040201F010030BB1C6
:103AA00082F0100201F020030BB182F0200242F4F8
:103AB000004343F08003C74D05EB8004C4F8003C8D
:103AC00030BD30B5C34C04EB8003D3F8003C4BF65B
:103AD0008F7403EA040201F480530BB182F4805224
:103AE00001F400530BB182F4005242F4004343F05E
:103AF0008003B84D05EB8004C4F8003C30BD30B500
:103B000003460C461846FFF79DFF0546012C07D1DA
:103B100025F48050AF4A02EB8301C1F8000C08E0A5
:103B2000022C06D125F01000AA4A02EB8301C1F84D
:103B3000000C30BD0146A74A02EB8100D0F8000C12
:103B400000F0300070470146A24A02EB8100D0F835
:103B5000000C00F44050704710B59E4B03EB800200
:103B6000D2F8002C48F6BF7302EA030181F010017D
:103B700081F0200141F4004242F08002954C04EBB8
:103B80008003C3F8002C10BD10B5924B03EB8002EC
:103B9000D2F8002C4BF68F7302EA030181F48051B6
:103BA00081F4005141F4004242F08002894C04EB60
:103BB0008003C3F8002C10BD864A02EB8001D1F8C7
:103BC000001C41F4807148F68F72114048F2800267
:103BD0001143804B03EB8002C2F8001C70477D4A02
:103BE00002EB8001D1F8001C48F68F62114048F2C8
:103BF00080021143774B03EB8002C2F8001C704730
:103C0000744A02EB8001D1F8001C48F68F62114023
:103C100048F2800211436F4B03EB8002C2F8001C94
:103C200070476C4A02EB8001D1F8001C41F48071AE
:103C300048F68F72114048F280021143654B03EB46
:103C40008002C2F8001C7047624A02EB8001D1F882
:103C5000001C41F4807148F68F72114048F28002D6
:103C600011435C4B03EB8002C2F8001C7047594AB9
:103C700002EB8001D1F8001C48F68F62114048F237
:103C800080021143534B03EB8002C2F8001C7047C3
:103C90000146504A02EB8100D0F8000C00F03000E1
:103CA000102801D1012070470020FCE70146494A55
:103CB00002EB8100D0F8000C00F44050B0F5805FBA
:103CC00001D1012070470020FCE7424A02EB80014D
:103CD000D1F8001CC1F30E0148F68F7211403D4B24
:103CE00003EB8002C2F8001C70473A4A02EB8001E5
:103CF000D1F8001C48F60F721140364B03EB8002DE
:103D0000C2F8001C7047334A02EB8001D1F8001C56
:103D100048F68F7211404CF2800211432D4B03EB99
:103D20008002C2F8001C70472A4A02EB8001D1F8D9
:103D3000001C48F68F72114048F2C0021143254B17
:103D400003EB8002C2F8001C7047224A02EB80019C
:103D5000D1F8001C01F4804171B102EB8001D1F86F
:103D6000001C48F68F7211404CF280021143194B2F
:103D700003EB8002C2F8001C7047164A02EB800178
:103D8000D1F8001C01F0400171B102EB8001D1F8C3
:103D9000001C48F68F72114048F2C00211430D4BCF
:103DA00003EB8002C2F8001C704710B5094B03EB0F
:103DB0008002D2F8002C48F68F731A4048F2800334
:103DC0001A430A43034C04EB8003C3F8002C10BDD4
:103DD000405C0040005000400146FC4A02EB81007C
:103DE000D0F8000C00F00F00704710B54A105200D8
:103DF000F74B1B689BB203EBC003F64C44F813204F
:103E000010BD10B54A105300F14A126892B202EB8D
:103E1000C002121DEF4C44F8123010BD0146EC48B0
:103E2000006880B200EBC100EA4A32F8100080B2AC
:103E300070470146E648006880B200EBC100001DF3
:103E4000E44A32F8100080B27047E14A126892B238
:103E500002EBC002921CDF4B43F81210704702467F
:103E60003E290BDD481101F01F030BB9431E98B228
:103E70004FF4004343EA8023136007E0481001F049
:103E800001030BB1431C98B283021360704710B555
:103E90000246CF48006880B200EBC200801DCD4CC6
:103EA00004EB40033E290BDD481101F01F040CB95F
:103EB000441EA0B24FF4004444EA80241C6007E092
:103EC000481001F001040CB1441CA0B284021C6033
:103ED00010BD0146BE48006880B200EBC100801CE6
:103EE000BC4A32F81000C0F3090070470146B848D8
:103EF000006880B200EBC100801DB64A32F81000A5
:103F0000C0F30900704730B54B105B00B04C24681B
:103F1000A4B204EBC004AF4D45F8143053105C005C
:103F2000AB4B1B689BB203EBC0031B1D45F8134052
:103F300030BD10B54A105200A54B1B689BB203EB75
:103F4000C003A44C44F8132010BD10B54A10530010
:103F50009F4A126892B202EBC002121D9D4C44F8B7
:103F6000123010BD01469A48006880B200EBC100D3
:103F7000984A32F8100080B27047014694480068B1
:103F800080B200EBC100001D924A32F8100080B2EE
:103F9000704730B50B46012B1FD18D49096889B296
:103FA00001EBC001891C8B4D05EB41043E2A0BDD62
:103FB000511102F01F050DB94D1EA9B24FF4004575
:103FC00045EA8125256007E0511002F001050DB199
:103FD0004D1CA9B28D0225600AE0022B08D17C4954
:103FE000096889B201EBC001891C7A4C44F81120A0
:103FF000012B1FD17649096889B201EBC001891DE7
:10400000744D05EB41043E2A0BDD511102F01F05F2
:104010000DB94D1EA9B24FF4004545EA8125256032
:1040200007E0511002F001050DB14D1CA9B28D023F
:1040300025600AE0022B08D16549096889B201EBC5
:10404000C001891D634C44F8112030BD30B50346D2
:1040500001291FD15E48006880B200EBC300801CBC
:104060005C4D05EB40043E2A0BDD501102F01F05AC
:104070000DB9451EA8B24FF4004545EA80252560DC
:1040800007E0501002F001050DB1451CA8B28502F1
:1040900025600AE0022908D14D48006880B200EB93
:1040A000C300801C4B4C44F8102030BD30B5034693
:1040B00001291FD14648006880B200EBC300801D73
:1040C000444D05EB40043E2A0BDD501102F01F0564
:1040D0000DB9451EA8B24FF4004545EA802525607C
:1040E00007E0501002F001050DB1451CA8B2850291
:1040F00025600AE0022908D13548006880B200EB4B
:10410000C300801D334C44F8102030BD01463048B8
:10411000006880B200EBC100801C2E4A32F810000B
:10412000C0F30900704701462948006880B200EBDF
:10413000C100801D274A32F81000C0F30900704703
:1041400001462348006880B200EBC100801D214A6F
:1041500032F8100000F47C4008B1012070471C4880
:10416000006880B200EBC100801C1A4A32F81000CF
:10417000C0F3090008B10220F0E70020EEE710B517
:10418000012910D1114B03EB8002D2F8002C48F624
:104190008F731A4048F2C0031A430C4C04EB80039F
:1041A000C3F8002C11E002290FD1084B03EB800269
:1041B000D2F8002C48F68F731A404CF280031A4351
:1041C000024C04EB8003C3F8002C10BD00500040EB
:1041D000505C004000600040024641EA0220704707
:1041E0000146CAB20B1243EA0220704700201D4963
:1041F00008604FF406401C490880084600881949A9
:10420000091F0860002070472DE9F04104460E4662
:10421000154604F07F00FFF701FE0746AAB23946B3
:104220003046FFF7B1FBA9B204F07F00FFF70DFEA7
:104230000020BDE8F0812DE9F04104460E4600253E
:1042400004F07F00FFF752FE054604F07F00FFF701
:10425000F0FD07462A4639463046FFF7AFFB2846B1
:10426000BDE8F081445C004072000020F8B50026F3
:10427000224D002710E0684600F05BF904469DF8E7
:10428000000000B90AE09DF80000304486B225F82D
:10429000024BAD1C781C87B2202FECDB00BF06B9A7
:1042A000F8BD31460120FFF7D0FD0120FFF754FC97
:1042B00000BFF5E710B590B069460320FFF7BBFFDC
:1042C00084B22146684600F0CAF80320FFF75CFC80
:1042D00010B010BD10B50A48006805280CD1094877
:1042E00001680068401C074A1060052904D10020BD
:1042F00011460860FFF7BAFF10BD00008061004062
:104300006C010020980000201CB544F620640121B7
:104310000420FCF781FB4FF48051A348FCF76FF9B0
:104320004FF48050ADF8040003208DF806001420EF
:104330008DF8070001A99C48FCF7B2F84FF48051B2
:104340009948FCF75CF900BF201EA4F10104FBD1E1
:10435000FCF7C2FA0121C805FCF76BFB4FF4C06003
:10436000FBF742FF14208DF8000001208DF80100BA
:1043700000208DF8020001208DF803006846FBF74D
:1043800038FF00218948C180818041800180FFF78A
:104390003FF91CBD03208649086070478548817A33
:1043A00019B10521824A116002E00121804A1160A1
:1043B000704710B504462CB94FF480517A48FCF789
:1043C0001EF904E04FF480517748FCF716F910BD50
:1043D00070B505460C462246C0212846FFF7D4FAA0
:1043E00021460120FFF731FD0120FFF7B5FB70BD2D
:1043F00030B50B46002100BF16E00A24B4EB107F55
:1044000005D9302404EB107403F8114005E0412471
:1044100004EB10740A3C03F81140000100254C0025
:10442000641C1D554C1CE1B29142E6DB30BD2DE908
:10443000F041044660480568001D0668001D0768D5
:104440003D4455B10822A11C2846FFF7D1FF0422A4
:1044500004F112013046FFF7CBFFBDE8F08130B523
:104460000246002012E0145C504BDD88A3F5006387
:104470005C554E4BDB885B1C9CB24C4BDC80B4F52E
:10448000006F01DB0024DC80431C98B28842EADB29
:1044900030BD70B50446012000F082F84348C6885C
:1044A000002000F07DF841488088B04202D1002011
:1044B000207070BD3D488188A0F50060455C3B4898
:1044C0008088401C81B239488180B1F5006F01DBE2
:1044D00000218180012020702846EAE770B505465A
:1044E0000E46002417E0295D30484088334A1154B5
:1044F000012000F055F82D484088401C81B22B481F
:104500004180B1F5006F01DB00214180002000F007
:1045100047F8601C84B2B442E5DB70BD70B5044658
:10452000204600F048FB0546A9B22046FFF7D6FF1B
:1045300070BD01461D4803884088834202D1002097
:1045400008707047194800881C4B1A5C174800888F
:10455000401C83B215480380B3F5006F01DB0023D4
:104560000380124803884088834203D101200870E9
:104570001046E6E70D480088104B185C02EB00205F
:1045800082B20A480088401C83B208480380B3F511
:10459000006F01DB00230380022008701046D0E783
:1045A00080F310887047000000080140C41200200A
:1045B0006C010020A8020020E8F7FF1FC4020020C1
:1045C00010B518480068184908800846008800F4AB
:1045D000004016490988084008B1FFF737F812482B
:1045E000008800F4806011490988084030B14FF616
:1045F000FF300C4908600E49486880470A48008827
:1046000000F4007009490988084050B14FF6FF5086
:104610000449086007480078401C06490870FFF705
:1046200059FE10BD445C00409C0000207200002038
:10463000E80000209E00002010B58448FFF7F7FE38
:10464000002083490968887200F016F9FFF7CEFD53
:1046500000208049086010BD10B500207C49096821
:1046600088727D48C0797A49096848720020784983
:104670000968C872FFF7D4F94FF400710020FFF702
:10468000E9F910210020FFF7FEF940210020FFF793
:10469000B8FB80210020FFF7A8FB0020FFF7B0FA4D
:1046A0006E4890F82C100020FFF7F1FB0020FFF778
:1046B0006BFA00210120FFF7CDF9C0210120FFF79F
:1046C00094FB20210120FFF7DEF900210120FFF7F4
:1046D000F8F94FF4C0610220FFF7BCF94FF4807184
:1046E0000220FFF782FB00210220FFF7EAF92021D8
:1046F0000220FFF7C8F900210320FFF7ABF94FF4C0
:1047000088710320FFF77DFB40210320FFF7BFFBEB
:104710004FF440510320FFF7D4F900210320FFF7A5
:10472000B2F90020FEF7E5FE01204A49086010BDFD
:104730004B48817A11B10521464A11607047042027
:1047400044490860704747480078202802D100207B
:104750004449087070477047014629B908203C4A0F
:1047600012681082002070473F48FCE7014629B9D3
:104770000820374A12681082002070473A48FCE748
:1047800070B504460025212C09D131480068007815
:1047900000F07F00212810D1AFF22F050DE0202C72
:1047A0000BD12B480068007800F07F00212801D150
:1047B000AFF25B0520202B4908700DB9022070BDB7
:1047C000234800688561002121480068418200205B
:1047D000A8470020F3E701461D480068007800F074
:1047E0007F00212807D1022901D10020704722290A
:1047F00001D10020FAE70220F8E710B504461B4972
:104800002046FEF76CFB10BD10B504461849204643
:10481000FEF765FB10BD70B505460D480068C4780D
:10482000042C01DD002070BD124800EBC4012846B5
:10483000FEF755FBF7E70246002901DD022070472D
:10484000012A01DD0220FAE70020F8E77C000020C1
:10485000680000206C0100209EC20008E8000020D3
:10486000A8020020D8000020DC0000203C0100202D
:10487000440100204C01002010B50120FFF799FDF4
:1048800001244C48046000204B49088008460088F9
:10489000484908600020091D08604FF4E05046496F
:1048A00008800846008843490860002010BD10B504
:1048B0000120404908600020091D0860FFF779FDCC
:1048C00003203C490860002010BD10B5394800683D
:1048D00084B244F0080437480460006884B244F0AD
:1048E000040434480460FFF755FD10BD10B531488D
:1048F000006884B224F004042E480460FFF74EFDE3
:104900004FF406402B49086010BD70B50546072DD1
:1049100001D02A48057029480078082841D2DFE8EC
:1049200000F0040A1016212E4142FFF7DFFF062097
:10493000224908703BE0FFF7D9FF04201F490870A7
:1049400035E002201D494870032008702FE01B4805
:104950004078401E194948700846407808B904203C
:10496000087024E01348006884B244F01004114831
:1049700004600520114908700A20487017E00F48AC
:104980004078401E0D4948700846407840B90948B3
:10499000006884B224F01004064804600620087001
:1049A00005E000BF00BF06200449087000BF00BF3B
:1049B00070BD0000405C00407200002071010020CA
:1049C00010B54C1084EA530404D54042C1F10001F3
:1049D00038BF491E1B4204D55242C3F1000338BF01
:1049E0005B1E00F0A8F914F0804F04D04042C1F1E2
:1049F000000138BF491E14F0004F04D05242C3F1E9
:104A0000000338BF5B1E10BD0FB41CB5074B06AAD0
:104A10007B4469460090059800F07DFC00206946C3
:104A200000F08CFC1CBC5DF814FB000029090000A0
:104A30002DE9F0410646002410687529314616A577
:104A400010D0AFF30080002802DA404213A507E03F
:104A500031688A0701D512A502E0490704D511A5DE
:104A6000012401E0AFF3008000210A2206F12407AF
:104A700009E0B0FBF2FCB0FBF2F302FB1C003030AB
:104A800078541846491C0028F3D123462A4630465C
:104A9000BDE8F04100F0D1B9000000002D00000099
:104AA0002B000000200000002DE9F0474FF0000A25
:104AB00089460446C0F820A02046E16888470028BF
:104AC00076D0252806D0D4E901219047206A401CE1
:104AD0002062F1E7E168204600258847C4F81CA061
:104AE00006460027C4F818A02A2E09D0304601F047
:104AF0005FFA38B304EB8708303EC8F8186019E055
:104B000059F8041B204604EB87029161E16888474D
:104B1000012F064618D1E069002820DA25F020058B
:104B20001DE0D8F8180000EB800006EB400030389C
:104B3000C8F818002046E1688847064601F038FAB0
:104B40000028EED1012F0AD02E2E08D12046E16890
:104B500088477F1C0646022F45F02005C4DBA0696C
:104B6000002803DA404245F00105A061E80701D0C2
:104B700025F01005B6B1A6F14100192802D820365B
:104B800045F400654A463146204625604D46FBF710
:104B900007FB58B1012806D0ED1D25F0070000F1F4
:104BA000080989E704E005F1040985E730468AE74A
:104BB000206ABDE8F08710B5431C02E010F8011B25
:104BC00071B18107FAD14FF0013202C88C1A8C43BF
:104BD00014EAC211F9D0C01A0A0603D0C01E10BDD3
:104BE000C01A10BD0A0401D0801E10BD0902FCD0FD
:104BF000401E10BD032A40F2308010F0030C00F07C
:104C0000158011F8013BBCF1020F624498BF11F806
:104C100001CB00F8013B38BF11F8013BA2F10402BF
:104C200098BF00F801CB38BF00F8013B11F0030337
:104C300000F02580083AC0F0088051F8043B083A9B
:104C400051F804CBA0E80810F5E7121D5CBF51F83D
:104C5000043B40F8043BAFF30080D20724BF11F8B7
:104C6000013B11F801CB48BF11F8012B24BF00F81C
:104C7000013B00F801CB48BF00F8012B704710B58D
:104C8000203AC0F00B80B1E81850203AA0E8185044
:104C9000B1E81850A0E81850BFF4F5AF5FEA027C05
:104CA00024BFB1E81850A0E8185044BF18C918C074
:104CB000BDE810405FEA827C24BF51F8043B40F815
:104CC000043B08BF7047D20728BF31F8023B48BFFA
:104CD00011F8012B28BF20F8023B48BF00F8012B38
:104CE00070474FF0000200B51346944696462039AF
:104CF00022BFA0E80C50A0E80C50B1F12001BFF495
:104D0000F7AF090728BFA0E80C5048BF0CC05DF8FA
:104D100004EB890028BF40F8042B08BF704748BF48
:104D200020F8022B11F0804F18BF00F8012B7047BC
:104D300070477047704753EA020C00F069802DE914
:104D4000F04B4FF00006002B1FBFB3FA83F503FAB8
:104D500005F424FA05F65E4012BF1643B2FA82F556
:104D600002FA05F4C5F120051EBF22FA05FC44EA4B
:104D70000C04203556EA044C4FEA144418BF641C56
:104D80004FF000084FF00009904271EB030C39D34B
:104D9000002919BFB1FA81F701FA07F6B0FA80F7D6
:104DA00000FA07F6C7F120071EBF20FA07FC46EA03
:104DB0000C062037B6FBF4FCA7EB0507103F07F005
:104DC0001F0BCBF120060CFA0BFB2CFA06F644BFA6
:104DD000B3460026202FA4BF5E464FF0000B5BEACF
:104DE000060C08BF4FF0010B19EB0B09ABFB027C63
:104DF00048EB0608C01B06FB02CC0BFB03CC71EB97
:104E00000C01C1E70B46024641464846BDE8F08B1F
:104E100013B54FF000004FF00001AFF30080BDE884
:104E20001C40704710B500F093FA006810BD10B533
:104E3000044600F08DFA046010BD2DE9F0470D46E0
:104E400099469246044600F124080168880604D574
:104E5000E06921F01001216000E00120A84201DD9D
:104E6000471B00E00027A1697A1902EB0900081A24
:104E7000A0612078C00602D42046AFF3008000264F
:104E800008E0D4E901211AF806009047206A401C86
:104E9000761C20624E45F4DB2078C0060AD52046F9
:104EA000AFF3008006E0D4E9012130209047206A6A
:104EB000401C2062381EA7F10107F4DC07E0D4E9AA
:104EC000012118F805009047206A401C2062281E26
:104ED000A5F10105F3DC2046AFF300802078000641
:104EE00002D50220BDE8F0870120FBE770472DE9DD
:104EF000FF4F0C461E464FF0FF378BB0D2E9000142
:104F0000DDF860800A908A46C1F30A5505B93D462E
:104F1000002108464FF00000BAF1000F00F44000F5
:104F200005DA00EB80004FF4400101EA50004FEA3F
:104F30009059B9F1010F00DDB9460A9850EA4A00CC
:104F40000ED044F61050A5F2FF3545432F14B8F1AA
:104F5000000F1ED07542291E1EDDC9F100021CE0A3
:104F6000B8F1010F4FF0000001D0302103E0F2430F
:104F700005E02154401CB042FBDB304600220021FA
:104F800021540B99C1F80880C1E900200FB0BDE899
:104F9000F08FBD1B6D1CDEE74A4600DA694206A8A9
:104FA00000F060FA06AB93E8070003AB83E8070064
:104FB00050460A9900F041FB8DE80700A0F500502B
:104FC0001F3800900398002D0ADD42F21F014A4667
:104FD0000844002303A90390684600F0AAFD09E0F5
:104FE000A0F500504A461F38002303A903906846E5
:104FF00000F0B4FD8DE807000004000C03D04FF072
:10500000FF30410800E01046B8F1000F03D0002245
:10501000009215461EE0751E05D400F09DF9303251
:1050200062556D1EF9D5B3460122084302D0002215
:105030007F1C04E02078302801D100227F1E002A46
:10504000099784D01DE0112D07DA00F085F9303280
:1050500062556D1C50EA0102F5D1084302D0009858
:10506000C8B10EE00021681E05E0235C625C635459
:105070002254401E491C8142F7DBAB46A81B401E50
:105080000990002004F80B000B98099AC0F80880DA
:10509000C0E9002B7AE711264FF0000857E72DE909
:1050A000F04F88460446D21D22F0070191B0D1E9A5
:1050B0000001CDE90A0100F088FE02460B98C00FFE
:1050C00001D02D2007E02068810701D52B2002E0C8
:1050D000202101EAC000032A099001D0072A05DB3C
:1050E00003464146204600F07DF90BE1207880061A
:1050F00001D5E06900E00620B8F1650F814606D0D1
:10510000B8F1660F18D0B8F1670F70D131E0002008
:10511000B9F1110F009001DB112301E009F1010346
:105120000AAA01A90CA8FFF7E2FEDDE90C7000262F
:1051300009F10105834647E001204B4600904FF0FE
:1051400000470AAA01A90CA8FFF7D1FEDDE90DB0BE
:105150000C995D46002610B909F101000D18B9EB54
:10516000050003D4C0F1FF3609F10105A5EB0900E4
:105170002BE0B9F1010F01DA4FF001090020B9F17C
:10518000110F0090484601DD112300E003460AAAF2
:1051900001A90CA8FFF7ABFEDDE90C704D46002617
:1051A0008346207800070AD4AB4500DA5D4601A8A3
:1051B000012D04DD411911F8011C302907D04F459C
:1051C00002DA17F1040F04DA012082460FE06D1EA7
:1051D000EEE7002F02DCED1B3E4403E0781CA84202
:1051E00000DD7D1CB81B00F1010A4FF0004720785C
:1051F000000703D4AA4501DB4FF0FF3A0021B7F1C5
:10520000004F0DF143088DF8431024D002202B23CA
:10521000002F01DA7F422D230A21021EA0F1010096
:1052200000DC5FB197FBF1FC97FBF1F201FB1C7C0A
:1052300017460CF1300C08F801CDEEE7A8F101009B
:1052400003702188090501D5452100E06521A0F101
:10525000010800F8011C09980FA9A1EB0807FF1D20
:1052600000B10120411901EBEA70A1693844081A24
:10527000401EA0612078C00602D42046AFF3008013
:10528000099828B1D4E901219047206A401C206286
:105290002078C00622D52046AFF300801EE0002E05
:1052A00004DBB34502DD01A8805D00E03020D4E9D5
:1052B00001219047206A401C2062761CAAF101005F
:1052C0005FEA000A0AD100F03FF8C0680168405C5C
:1052D000D4E901219047206A401C2062281EA5F1D4
:1052E0000105DCDC07E0D4E9012118F8010B904747
:1052F000206A401C2062381EA7F10107F3DC20461B
:10530000AFF30080032011B041E6000001694A1CA0
:1053100002610878704700B58FB0CDE901310021F6
:10532000059105497944CDE9031011466846FFF718
:10533000BBFB0FB000BD0000E5FFFFFF0A6802F8ED
:10534000010B0A60704700000048704750170020AA
:10535000004870473017002030B5B0F10A024FEA1C
:10536000900E71F100034EEA817EB0EB0E0061EB0E
:1053700091014FEA101E4EEA017E10EB0E0041EB48
:1053800011114FEA102E4EEA016E10EB0E0041EBA8
:1053900011214FEA104E4EEA014E10EB0E0041EB88
:1053A0001141401841F100014FEAD00040EA41703C
:1053B0004FEAD10110EB80054FEA810444EA907472
:1053C00044EB01046D1944EB0404521BA3414FF05C
:1053D000000348BF0A3200D530BD401C41F1000136
:1053E00030BD00002DE9F0411F4604460326016848
:1053F000072A01F4006004DB08B116A505E016A534
:1054000003E008B115A500E015A521F0100020600B
:10541000A069C01EA0610FB1401EA0612046AFF37D
:1054200000804FB1D4E9012138469047206A401CE2
:105430002062C01C206206E0206AFAE7D4E901215C
:1054400015F8010B9047761EF8D22046AFF3008086
:10545000BDE8F0814E414E006E616E00494E46003F
:10546000696E66002DE9F047814616468AB03548D8
:1054700078440DC88DE80D0032487844801C03AC98
:105480000DC884E80D0041F69B300844372190FB9D
:10549000F1F290FBF1F5A5F1800501FB12041B3C34
:1054A00002D56442012000E00020DFF898A0804689
:1054B0000027FA44AAF1BE0A0EE0E0070AD03246FD
:1054C000684607EB470101230AEB810100F046FB28
:1054D0008DE8070064107F1C002CEED1194F7F442B
:1054E000AE3F19E0E80715D007EB04100DF1180ADC
:1054F00090E80E008AE80E00C068F04201D19819C9
:1055000008903246012306A903A800F027FB03AB4D
:1055100083E807006D10641C002DE3D14FF00103F8
:1055200032466946B8F1000F03A802D000F001FB33
:1055300001E000F013FBC9E90001C9F808200AB036
:10554000BDE8F0870C790000004870473017002054
:105550007546FFF7F9FFAE4605006946534620F051
:105560000700854618B020B5FBF74CFCBDE820408D
:105570004FF000064FF000074FF000084FF0000B0F
:1055800021F00701AC46ACE8C009ACE8C009ACE8C2
:10559000C009ACE8C0098D46704710B50446AFF3AA
:1055A00000802046BDE81040FAF717BE4FF0013CDE
:1055B00050F8042B51F8043B9A4221D1A2EB0C0382
:1055C000934313EACC1317D150F8042B51F8043B42
:1055D0009A4215D1A2EB0C03934313EACC130BD1DF
:1055E00050F8042B51F8043B9A4209D1A2EB0C036A
:1055F000934313EACC13DBD04FF00000704700BF99
:10560000D01A01BAB1FA81F101F0180122FA01F0C1
:10561000CB40C1F12001DBB2C0B2C01A2CFA01F3B9
:10562000D11A914311EAC311E6D1704701491820FC
:10563000ABBEFEE72600020070475FEA400C08BFE1
:1056400091F0000F4FEA8C234FEAC12243EA5151F7
:105650004FEA1C5018BF00F5F0404FEA300018BF69
:1056600041F000415FEA6C5C00F02980BCF1FF3F33
:1056700008BF40F080407047130C06BF12044FF083
:10568000100C4FF0000C130E04BF12020CF1080CAA
:10569000130F04BF12010CF1040C930F04BF92000E
:1056A0000CF1020CD30F04BF52000CF1010C114697
:1056B0004FF00002A0F11F00A0EB0C00704711F0AA
:1056C000004F08BF704731F000413FF4D5AF0B0CDD
:1056D00006BF09044FF0100C4FF0000C0B0E04BF76
:1056E00009020CF1080C0B0F04BF09010CF1040CAA
:1056F0008B0F04BF89000CF1020CCB0F04BF4900D3
:105700000CF1010CCCF12003A0EB0C0022FA03F306
:1057100002FA0CF241EA030100F10100704720F0A7
:105720007F4C80EA030023F07F47ACEB070303F5CF
:105730007C5300F0004003F1FF032DE980494FEA5C
:10574000154B09B44FEA144325EA0B4E24EA0348EB
:105750000FF2042606EB132749083E785FEA32026F
:1057600003FB0667C7F5000707FB06F64FEA543749
:105770004FEAD64606F1020607FB066CCCF1005C48
:105780004FEA1C472CEA074C07FB06F40CFB06F516
:1057900004EB15464FEA961634BF00204FF0004048
:1057A0004FEAD13706FB07FC4FEA1C4C0CFB0BF70A
:1057B000D21B03FB0CF761EB07010CFB0EF7B0EB00
:1057C000074072EB17420CFB08F734BFA2EB07420D
:1057D000B2EB074261EB17414FEA0C444FEA9107E5
:1057E00006FB07FC4FEA1C4C0CFB0BF7B0EBC74069
:1057F00072EB573203FB0CF734BFA2EBC742B2EB9C
:10580000C74261EB57310CFB0EF7B0EBC70072EBF0
:1058100057720CFB08F734BFA2EBC702B2EBC7020A
:1058200061EB5771039F4FEA816141EA921104EBEA
:10583000CC044FEAD1374FEA826206FB07FC42EA0A
:1058400090124FEA80604FEA1C4C0CFB0BF7D21B06
:1058500003FB0CF761EB07010CFB0EF7B0EB074005
:1058600072EB17420CFB08F734BFA2EB0742B2EB16
:10587000074261EB17414FEA8C554FEA910704EB61
:105880009C2406FB07FC4FEA1C4C0CFB0BF7B0EB0F
:10589000C74072EB573203FB0CF734BFA2EBC74291
:1058A000B2EBC74261EB57310CFB0EF7B0EBC70010
:1058B00072EB57720CFB08F734BFA2EBC702B2EBD6
:1058C000C70261EB577115EB4C254FEA816141EA44
:1058D00092114FEA82624FEAD13742EA901206FBF8
:1058E00007FC44F100044FEA80604FEA1C4C0CFBBB
:1058F0000BF7D21B03FB0CF761EB07010CFB0EF758
:10590000B0EB074072EB17420CFB08F734BFA2EB79
:105910000742B2EB074261EB174115EB1C154FEA4A
:10592000813141EA92414FEA823242EA90424FEAA3
:1059300080304FEA0C7644F1000448EA03434EEA13
:105940000B484FF0000EB2EB080C71EB030724BFBD
:10595000624639464EEB0E0E4FF0000B00185241D6
:1059600049414BEB0B0BB2EB080C71EB03077BF1DE
:10597000000B24BF624639464EEB0E0E4FF0000B73
:105980000018524149414BEB0B0BB2EB080C71EB89
:1059900003077BF1000B24BF624639464EEB0E0E27
:1059A00051EA020718BF46F0010616EB0E7655F1D4
:1059B000000254F1000103D5BDE88901BDE800886B
:1059C000BDE88901BDE80048B619524141EB01012B
:1059D000A3F10103704780807F7E7D7C7B7A79789C
:1059E000777676757473727171706F6E6E6D6C6CA4
:1059F0006B6A6A6968686766666564646363626146
:105A00006160605F5F5E5E5D5D5C5C5B5B5A5A59C6
:105A10005958585757565655555554545353525232
:105A20005251515050504F4F4F4E4E4D4D4D4C4C8A
:105A30004C4B4B4B4A4A4A494949484848474747D3
:105A40004746464645454544444444434343434210
:105A5000424242414141002B9C4630D477002BD03A
:105A60001CB54FEA370703B44FF010004FF0100198
:105A7000BAF1000F06D0BCF1000FDCBF40F0080007
:105A800040F008014FF000000FBCBDE810400BF1E2
:105A9000010BBBF1010F08BF5FEA170722BF12F12C
:105AA000010211F101014FF0004143F1000300F048
:105AB000004043EA00007047F9D35708D0E746EAB0
:105AC000064613F1400F4FEA16461FDD13F1200F73
:105AD000DFBF16430A46002120335B42BED0C3F12C
